:020000040800F2
:1000000000000120AD090008AD030008AF0300089F
:10001000B1030008B3030008B503000800000000A6
:10002000000000000000000000000000B70300080E
:10003000B903000800000000BB030008BD0300086E
:10004000F5090008F5090008F5090008F509000898
:10005000F5090008F5090008F5090008F509000888
:10006000F5090008F5090008F5090008F509000878
:10007000F5090008F5090008F5090008F509000868
:10008000F5090008F5090008F5090008F509000858
:10009000F5090008F5090008F5090008F509000848
:1000A000F5090008F5090008F5090008F509000838
:1000B000F5090008F5090008F5090008F509000828
:1000C000F5090008F5090008F5090008F509000818
:1000D000F5090008F5090008F5090008F509000808
:1000E000F5090008F5090008F5090008F5090008F8
:1000F000F5090008F5090008F5090008F5090008E8
:10010000F5090008F5090008F5090008F5090008D7
:10011000F5090008F5090008F5090008F5090008C7
:10012000F5090008F5090008F5090008F5090008B7
:1001300000000000000000000000000000000000BF
:1001400000000000000000000000000000000000AF
:10015000000000000000000000000000000000009F
:10016000000000000000000000000000000000008F
:10017000000000000000000000000000000000007F
:10018000000000000000000000000000000000006F
:10019000000000000000000000000000000000005F
:1001A000000000000000000000000000000000004F
:1001B000000000000000000000000000000000003F
:1001C000000000000000000000000000000000002F
:1001D000000000000000000000000000000000001F
:0401E0005FF8E0F1F3
:1001E4000348044B834202D0034B03B118477047C2
:1001F4001000002010000020000000000548064BFD
:100204001B1AD90F01EBA301491002D0034B03B110
:100214001847704710000020100000200000000064
:1002240010B5064C237843B9FFF7DAFF044B13B13A
:100234000448AFF300800123237010BD1000002098
:1002440000000000181C000808B5054B1BB1054947
:100254000548AFF30080BDE80840FFF7CFBF00BFFB
:100264000000000014000020181C000886B0184B81
:100274009A6942F004029A619A6902F004020192B6
:10028400019A9A6942F040029A619A6902F0400226
:100294000292029A9A6942F020029A619A6902F0E3
:1002A40020020392039A9A6942F010029A619A69B1
:1002B40002F010020492049A9A6942F008029A61C8
:1002C4009B6903F008030593059B06B0704700BFC4
:1002D4000010024072B6FEE710B590B006AC2822BA
:1002E4000021204601F0B8FB0023019302930393FD
:1002F40004930593012206924FF4803307930A92E4
:1003040002220D920E934FF4E0130F93204600F057
:1003140053FD78B90F230193022102910023039323
:100324004FF480620492059301A800F077FF18B996
:1003340010B010BDFFF7CEFFFFF7CCFF08B500F0FB
:100344007FFBFFF7C9FFFFF791FF00F03BF800F0D8
:100354006BF800F099F800F0C9F800F021FA00F009
:1003640093FAFEE782B00E4B9A6942F001029A6159
:100374009A6902F001020092009ADA6942F080520E
:10038400DA61DB6903F080530193019B054A5368EA
:1003940023F0E06343F00073536002B0704700BF82
:1003A4000010024000000140FEE7FEE7FEE7FEE722
:1003B400FEE770477047704708B500F053FB08BD6F
:1003C4007047000010B58CB003AC242200212046F5
:1003D40001F042FB0023019302931148114A026089
:1003E400436083604FF6FF72C260036143618361BF
:1003F4000123039305930993214601F037F948B982
:1004040000230193029301A9054801F0BDFA20B924
:100414000CB010BDFFF75EFFF2E7FFF75BFFF7E7F5
:1004240094010020002C014010B58CB003AC2422B0
:100434000021204601F010FB002301930293114890
:100444004FF080420260436083604FF6FF72C260E7
:10045400036183610123039305930993214601F00A
:1004640005F948B900230193029301A9054801F055
:100474008BFA20B90CB010BDFFF72CFFF2E7FFF7A1
:1004840029FFF7E74C01002010B58CB003AC2422FF
:100494000021204601F0E0FA002301930293114861
:1004A400114A0260436083604FF6FF72C2600361C9
:1004B40083610123039305930993214601F0D6F840
:1004C40048B900230193029301A9064801F05CFA9C
:1004D40020B90CB010BDFFF7FDFEF2E7FFF7FAFEFE
:1004E400F7E700BF040100200004004010B58CB001
:1004F40003AC24220021204601F0AEFA002301932C
:1005040002931148114A0260436083604FF6FF7200
:10051400C260036183610123039305930993214618
:1005240001F0A4F848B900230193029301A90648F5
:1005340001F02AFA20B90CB010BDFFF7CBFEF2E7A8
:10054400FFF7C8FEF7E700BFBC000020000800402A
:1005540010B58EB000230A930B930C930D9303688C
:10056400514A93420AD0B3F1804F29D04F4A934263
:100574005ED04F4A934275D00EB010BD4D4B9A6970
:1005840042F400629A619A6902F400620192019A4B
:100594009A6942F040029A619B6903F04003029316
:1005A400029B4FF420630A930AA9434800F0D6FA49
:1005B400424A536843F0E06343F0C0035360DBE70F
:1005C40003F50433DA6942F00102DA61DA6902F010
:1005D40001020392039A9A6942F004029A619A69A9
:1005E40002F004020492049A9A6942F008029A61A1
:1005F4009B6903F008030593059B4FF400430A939A
:100604000AAC21462E4800F0A9FA08230A930023D5
:100614000B930C9321462B4800F0A0FA274A536809
:1006240023F4407343F0E06343F480735360A3E71F
:10063400204BDA6942F00202DA61DA6902F002025E
:100644000692069A9A6942F004029A619B6903F041
:1006540004030793079BC0230A930AA9184800F0D0
:100664007DFA89E7134BDA6942F00402DA61DA6948
:1006740002F004020892089A9A6942F020029A61F0
:100684009B6903F020030993099B4FF440530A9399
:100694000AA90D4800F062FA084A536843F0E0637F
:1006A40043F48053536067E7002C0140000400408A
:1006B4000008004000100240001801400000014002
:1006C40000080140000C01400014014082B003689E
:1006D4000E4A934204D00E4A93420CD002B07047A3
:1006E4000C4BDA6942F00802DA61DB6903F00803B3
:1006F4000093009BF2E7074B9A6942F400529A6117
:100704009B6903F400530193019BE7E7000C00404D
:10071400003401400010024000B587B0002302936A
:100724000393049305930368184A934205D0184A27
:10073400934216D007B05DF804FB164B9A6942F059
:1007440004029A619B6903F004030093009B0F2346
:10075400029302230393059302A90F4800F0FEF9C4
:10076400E8E70C4B9A6942F010029A619B6903F026
:1007740010030193019B4FF47073029302230393BC
:10078400059302A9054800F0E9F9D3E7000C0040FD
:1007940000340140001002400008014000100140F4
:1007A40000B58FB000230A930B930C930D93089319
:1007B4000993019302930393049305930693079378
:1007C4002F48304A02604722426083606322C2603D
:1007D4000361836100F0F2FE002839D14FF48053A5
:1007E4000A930AA9264801F04FF8002833D1244877
:1007F40000F010FF002831D100230893099308A9C1
:100804001F4801F0C1F860BB6023019300220292EB
:100814000392059201A91A4800F0BCFF20BB0422F0
:100824000DEB0201164800F0B5FF00BB082201A938
:10083400134800F0AFFFE8B90C2201A9104800F0FA
:10084400A9FFD0B90E48FFF767FF0FB05DF804FBAE
:10085400FFF740FDC2E7FFF73DFDC8E7FFF73AFDAC
:10086400CAE7FFF737FDCFE7FFF734FDD7E7FFF718
:1008740031FDDBE7FFF72EFDDEE7FFF72BFDE1E7B8
:1008840074000020000C004010B596B000241294AF
:100894001394149415941094119409940A940B9439
:1008A4000C940D940E940F942022214601A801F07B
:1008B400D3F83B483B4B0360472343608460632386
:1008C400C36004614461846100F078FE00284BD168
:1008D4004FF48053129312A9314800F0D5FF002839
:1008E40045D12F4800F096FE002843D100231093F1
:1008F400119310A92A4801F047F800283DD160233C
:10090400099300220A920B920C920D920E920F926E
:1009140009A9234800F03EFF002831D1042209A987
:100924001F4800F037FF70BB082209A91C4800F0DB
:1009340031FF58BB0C2209A9194800F02BFF40BB1A
:100944000023019302930393049305934FF40052FD
:100954000692089301A9124801F054F8E0B910482E
:10096400FFF7DAFE16B010BDFFF7B4FCB0E7FFF7EF
:10097400B1FCB6E7FFF7AEFCB8E7FFF7ABFCBEE7A8
:10098400FFF7A8FCCAE7FFF7A5FCCDE7FFF7A2FC39
:10099400D0E7FFF79FFCD3E7FFF79CFCDFE700BF3E
:1009A4002C00002000340140FFF70AFD0B480C49DD
:1009B4000C4A002302E0D458C4500433C4188C42B7
:1009C400F9D3094A094C002301E013600432A2421E
:1009D400FBD301F08FF8FFF7B1FC70470000002053
:1009E40010000020601C0008100000207803002084
:1009F400FEE7000010B504460E4B1A784FF47A73E4
:100A0400B3FBF2F30C4A1068B0FBF3F000F092F879
:100A140068B90F2C01D901200AE0002221464FF0C9
:100A2400FF3000F077F8054B1C60002000E0012047
:100A340010BD00BF040000200000002008000020BA
:100A440008B5074A136843F010031360032000F04D
:100A54004FF80F20FFF7CEFFFFF784FC002008BDFE
:100A640000200240034A1168034B1B780B441360B7
:100A7400704700BFDC01002004000020014B18680F
:100A8400704700BFDC010020002808DB0901C9B25F
:100A940000F1604000F5614080F80013704700F0F9
:100AA4000F000901C9B2014B1954704714ED00E05D
:100AB40000B500F00700C0F1070CBCF1040F28BF1B
:100AC4004FF0040C031D062B0FD9C31E4FF0FF3E3D
:100AD4000EFA0CF021EA000199400EFA03FE22EA14
:100AE4000E0241EA02005DF804FB0023EEE7000079
:100AF400074AD36823F4E0631B041B0C000200F4D0
:100B0400E060034343F0BF6343F40033D3607047B2
:100B140000ED00E010B50446054BD868C0F3022090
:100B2400FFF7C6FF01462046FFF7AEFF10BD00BF2A
:100B340000ED00E00138B0F1807F0BD24FF0E023EC
:100B44005861054AF02182F8231000209861072299
:100B54001A6170470120704700ED00E070B582B063
:100B64000024A446A8E0834DAB4214D00CD8A5F5CC
:100B74008015AB420FD005F57025AB420BD0A5F51F
:100B84008015AB421FD106E07B4DAB4203D005F587
:100B94008035AB4217D18B68A3B1012B0DD04261D4
:100BA400082410E0CC680EE0CC6804340BE0CC6878
:100BB400083408E0CC680C3405E00261082402E043
:100BC400002400E00424BEF1FF0F41D806464FEA9A
:100BD4008C0233680F25954023EA050304FA02F2D8
:100BE400134333604B6813F0805F63D0634B9A699F
:100BF40042F001029A619B6903F001030193019B96
:100C04004FEA9C02951C5E4B53F825600CF00305DB
:100C1400AD000F23AB4026EA03065A4B98421ED080
:100C240003F58063984200F0838003F58063984263
:100C340000F0808003F5806398427DD003F58063E3
:100C440098427BD003F58063984206D0062307E0E0
:100C5400061DACF108029200BBE7052300E0002367
:100C6400AB4033430232464D45F822304B6813F40F
:100C7400801F65D0444A936843EA0E0393604B682F
:100C840013F4001F62D0404AD36843EA0E03D360D2
:100C94004B6813F4003F5FD03B4A536843EA0E03AA
:100CA40053604B6813F4803F5CD0374A136843EABF
:100CB4000E0313600CF1010C0B6833FA0CF257D0DD
:100CC400012202FA0CF203EA020E32EA0303F1D122
:100CD4004B68122B3FF647AF122B3FF674AF01A5BA
:100CE40055F823F09B0B0008A90B0008B30B000870
:100CF400C50B0008CB0B0008CB0B0008CB0B00087E
:100D0400CB0B0008CB0B0008CB0B0008CB0B000867
:100D1400CB0B0008CB0B0008CB0B0008CB0B000857
:100D2400CB0B0008CB0B0008AD0B0008B90B000877
:100D3400012395E7022393E7032391E704238FE735
:100D4400114A936823EA0E03936098E70E4AD36826
:100D540023EA0E03D3609BE70B4A536823EA0E038E
:100D640053609EE7084A136823EA0E031360A1E761
:100D740002B070BD000022100000311000100240CB
:100D840000000140000801400004014082B0084B0B
:100D94001B68084AA2FB03235B0A00FB03F30193CD
:100DA40000BF019B5A1E0192002BF9D102B070477B
:100DB40000000020D34D6210002800F0F18170B5CE
:100DC40082B00446036813F0010F2CD0994B5B6882
:100DD40003F00C03042B1DD0964B5B6803F00C034B
:100DE400082B12D06368B3F5803F41D0002B55D156
:100DF40003F1804303F504331A6822F480321A6045
:100E04001A6822F480221A6037E08A4B5B6813F474
:100E1400803FE7D0874B1B6813F4003F03D063681F
:100E2400002B00F0BF81236813F0020F75D0814BB3
:100E34005B6813F00C0F5FD07E4B5B6803F00C0310
:100E4400082B54D02369002B00F08A807A4B0122AE
:100E54001A60FFF713FE0546764B1B6813F0020F6A
:100E640075D1FFF70BFE401B0228F5D903209EE144
:100E7400704A136843F480331360636843B3FFF725
:100E8400FDFD05466B4B1B6813F4003FCBD1FFF708
:100E9400F5FD401B6428F5D9032088E1B3F5A02FA4
:100EA40009D0644B1A6822F480321A601A6822F45A
:100EB40080221A60E1E703F18043A3F53C331A680A
:100EC40042F480221A601A6842F480321A60D4E72D
:100ED400FFF7D4FD0546574B1B6813F4003FA2D01F
:100EE400FFF7CCFD401B6428F5D903205FE1514B8B
:100EF4005B6813F4803FA5D14E4B1B6813F0020FBF
:100F040003D02369012B40F04F814A4A136823F030
:100F1400F803616943EAC1031360236813F0080FFF
:100F240033D0A369002B5CD0434B0122C3F8802447
:100F3400FFF7A4FD05463F4B5B6A13F0020F21D176
:100F4400FFF79CFD401B0228F5D903202FE1394A05
:100F5400136823F0F803616943EAC1031360DCE713
:100F6400354B00221A60FFF789FD0546314B1B689B
:100F740013F0020FD1D0FFF781FD401B0228F5D9F1
:100F8400032014E10120FFF701FF236813F0040F8D
:100F940000F09680274BDB6913F0805F34D1254B3A
:100FA400DA6942F08052DA61DB6903F0805301931D
:100FB400019B0125214B1B6813F4807F26D0E36835
:100FC400012B3DD0002B53D103F1804303F50433AF
:100FD4001A6A22F001021A621A6A22F004021A62E0
:100FE40033E0154B0022C3F88024FFF747FD054684
:100FF400104B5B6A13F0020FC7D0FFF73FFD401B95
:101004000228F5D90320D2E00025D3E70B4A136860
:1010140043F480731360FFF731FD0646074B1B68EA
:1010240013F4807FCBD1FFF729FD801B6428F5D909
:101034000320BCE000100240000042420070004067
:101044005F4A136A43F001031362E36833B3FFF7A3
:1010540015FD06465A4B1B6A13F0020F2FD1FFF7FA
:101064000DFD801B41F288339842F3D903209EE0A2
:10107400052B09D0524B1A6A22F001021A621A6A2D
:1010840022F004021A62E0E74D4B1A6A42F00402AD
:101094001A621A6A42F001021A62D6E7FFF7EEFCFE
:1010A4000646474B1B6A13F0020F08D0FFF7E6FC15
:1010B400801B41F288339842F3D9032077E0E5B9E5
:1010C400E369002B72D03E4A526802F00C02082AEF
:1010D40056D0022B17D03B4B00221A66FFF7CEFCEA
:1010E4000446374B1B6813F0007F47D0FFF7C6FC5C
:1010F400001B0228F5D9032059E0314AD36923F0B3
:101104008053D361DCE72F4B00221A66FFF7B6FC4D
:1011140005462B4B1B6813F0007F06D0FFF7AEFC8F
:10112400401B0228F5D9032041E0236AB3F5803F30
:101134001AD023494B6823F47413226A606A024369
:1011440013434B601F4B01221A66FFF797FC0446BA
:101154001B4B1B6813F0007F0ED1FFF78FFC001BA5
:101164000228F5D9032022E0154A536823F40033FA
:10117400A1680B435360DCE7002018E0002016E070
:10118400012B16D00E4B5B6803F48031226A914226
:1011940011D103F47013626A93420ED1002006E069
:1011A40001207047012002E0012000E0002002B08D
:1011B40070BD0120FBE70120F9E70120F7E700BF3C
:1011C40000100240000042420F4B5B6803F00C0227
:1011D400082A01D00D487047C3F383420C49885C48
:1011E40013F4803F0BD0084B5B68C3F34043094AB8
:1011F400D35C064A02FB00F0B0FBF3F07047064BE9
:1012040003FB00F0704700BF0010024000127A0098
:10121400441C0008401C000800093D00002800F0A0
:10122400A08070B50D460446524B1B6803F00703BB
:101234008B420BD24F4A136823F007030B4313600E
:10124400136803F007038B4240F08D80236813F08A
:10125400020F17D013F0040F04D0474A536843F425
:10126400E0635360236813F0080F04D0424A5368C4
:1012740043F460535360404A536823F0F003A16879
:101284000B435360236813F0010F31D06368012BC3
:1012940020D0022B25D0384A126812F0020F64D0F5
:1012A40035494A6822F0030213434B60FFF7E6FB1B
:1012B4000646314B5B6803F00C036268B3EB820FA4
:1012C40016D0FFF7DBFB801B41F288339842F0D93C
:1012D400032045E0284A126812F4003FE0D10120BF
:1012E4003EE0254A126812F0007FD9D1012037E090
:1012F400204B1B6803F00703AB420AD91D4A13684D
:1013040023F007032B431360136803F00703AB4276
:101314002DD1236813F0040F06D0174A536823F421
:10132400E063E1680B435360236813F0080F07D0B0
:10133400114A536823F46053216943EAC10353609B
:10134400FFF742FF0C4B5B68C3F303130B4AD35CF8
:10135400D8400B4B18600B4B1868FFF74BFB002071
:1013640070BD012070470120FAE70120F8E7012051
:10137400F6E700BF0020024000100240301C0008C5
:10138400000000200800002030B4036A026A22F042
:10139400010202624268846924F0730C0C6844EA16
:1013A4000C0423F0020C8B6843EA0C03114DA84291
:1013B40003D005F50065A84205D123F00803CD68E4
:1013C4002B4323F004030B4DA84203D005F500651D
:1013D400A84207D122F440724D6945EA020C8A6999
:1013E40042EA0C02426084614A684263036230BC90
:1013F400704700BF002C014030B4036A026A22F433
:10140400807202624268C46924F0730C0C6844EA76
:101414000C0523F400738C6843EA0423114CA042A6
:1014240003D004F50064A04206D123F40063CC6821
:1014340043EA042323F480630A4CA04203D004F556
:101444000064A04207D122F440524C6942EA0412DB
:101454008C6942EA04124260C5614A68C26303624D
:1014640030BC7047002C014030B4036A026A22F495
:10147400805202624468C26922F4E6420D6842EA7C
:10148400052223F400538D6843EA0533094DA8422D
:1014940003D005F50065A84204D124F480444D69C5
:1014A40044EA85144460C2614A680264036230BC41
:1014B400704700BF002C014010B4036A046A24F092
:1014C40001040462846924F0F00C4CEA021223F053
:1014D4000A030B438261036210BC704710B4036AB1
:1014E400046A24F010040462846924F4704C4CEA05
:1014F400023223F0A00343EA01138261036210BCA9
:101504007047836823F070030B4343F00703836041
:10151400704770470368284A904212D002F500626F
:1015240090420ED0B0F1804F0BD0A2F59832904289
:1015340007D002F58062904203D002F580629042A7
:1015440003D123F070034A6813431B4A904212D01C
:1015540002F5006290420ED0B0F1804F0BD0A2F59C
:101564009832904207D002F58062904203D002F58F
:101574008062904203D123F44073CA68134323F07A
:1015840080034A69134303608B68C3620B688362F8
:10159400094B984203D003F50063984201D10B69CB
:1015A400036301234361036913F0010F03D003694B
:1015B40023F0010303617047002C014040B310B5D0
:1015C400044690F83D30F3B1022384F83D302146BF
:1015D40051F8040BFFF79EFF012384F8463084F88A
:1015E4003E3084F83F3084F8403084F8413084F849
:1015F400423084F8433084F8443084F8453084F829
:101604003D30002010BD80F83C30FFF75FF8DBE789
:101614000120704740B310B5044690F83D30F3B153
:10162400022384F83D30214651F8040BFFF772FF82
:10163400012384F8463084F83E3084F83F3084F83F
:10164400403084F8413084F8423084F8433084F8E0
:10165400443084F8453084F83D30002010BD80F8D3
:101664003C30FFF756FFDBE701207047002856D0D7
:1016740070B50D46044690F83D30002B4AD0022345
:1016840084F83D302268936823F4804323F00703F1
:101694009360214651F8040BFFF73CFF21688B68E7
:1016A4008A690E6A2868184322F4407222F0030201
:1016B400AB68D5F818C043EA0C23134323F47C43E6
:1016C40023F0FC03EA68D5F81CC042EA0C221A4352
:1016D4002B6A1B03D5F810C043EA0C13134326F0FE
:1016E40022066A686D6942EA0512324388602168FD
:1016F4008B6123681A62012384F8463084F83E30F3
:1017040084F83F3084F8423084F8433084F83D3024
:10171400002070BD80F83C30FEF71AFFAFE70120CF
:101724007047000030B4036A026A22F010020262B9
:101734004468826922F4E6420D6842EA052223F0F5
:1017440020038D6843EA0513114DA84203D005F523
:101754000065A84206D123F08003CD6843EA05134F
:1017640023F040030A4DA84203D005F50065A842C2
:1017740007D124F440644D6944EA85048D6944EA40
:101784008504446082614A688263036230BC7047A6
:10179400002C014038B590F83C30012B66D004464B
:1017A4000D46012380F83C300C2A5AD8DFE802F0B9
:1017B400075959591B595959305959594400006806
:1017C400FFF7E2FD2268936943F0080393612268FE
:1017D400936923F0040393612268936929690B4395
:1017E400936100203EE00068FFF79CFF2268936944
:1017F40043F4006393612268936923F480639361E3
:1018040022689369296943EA01239361002029E04E
:101814000068FFF7F1FD2268D36943F00803D36140
:101824002268D36923F00403D3612268D369296948
:101834000B43D361002015E00068FFF715FE226812
:10184400D36943F40063D3612268D36923F48063CA
:10185400D3612268D369296943EA0123D361002053
:1018640000E00120002384F83C3038BD0220FCE76E
:1018740010B4846824F47F4C42EA03220A4342EA07
:101884000C02826010BC704790F83C30012B78D079
:1018940010B50446012380F83C30022380F83D3023
:1018A4000268936823F47F4323F0770393600B6803
:1018B400602B4CD023D8402B54D011D8202B03D0EC
:1018C4000AD80BB1102B05D119462068FFF719FE71
:1018D400002028E0012026E0302BF5D0012022E072
:1018E400502B0AD1CA6849680068FFF7E5FD50210A
:1018F4002068FFF706FE002015E0012013E0B3F591
:10190400805F3AD0B3F5005F14D0702B37D1CB6829
:101914004A6889680068FFF7ABFF2268936843F060
:10192400770393600020012384F83D30002384F87A
:101934003C3010BDCB684A6889680068FFF798FF9F
:101944002268936843F4804393600020EBE7CA68FD
:1019540049680068FFF7C2FD60212068FFF7D1FDE8
:101964000020E0E7CA6849680068FFF7A5FD402148
:101974002068FFF7C6FD0020D5E70020D3E701204B
:10198400D1E702207047000090F83C20012A34D0AF
:1019940010B40346012280F83C20022280F83D2046
:1019A40002685068946820F0700C086840EA0C00E3
:1019B40050601A681248824212D000F500608242D8
:1019C4000ED0B2F1804F0BD0A0F59830824207D0F0
:1019D40000F58060824203D000F58060824204D129
:1019E40024F08004496821439160012283F83D205A
:1019F400002083F83C0010BC70470220704700BFF1
:101A0400002C0140024690F83C30012B21D00123E8
:101A140080F83C30CB6823F440738868034323F494
:101A240080634868034323F400630868034323F492
:101A340080530869034323F400534869034323F4A0
:101A44008043C9690B4311684B64002082F83C0051
:101A54007047022070470000830730B546D08446A3
:101A6400841805E0634603F8011B9D0703D09C46D8
:101A7400A445F7D130BD013A0244A2EB0C02032A7B
:101A840029D9CCB204EB04240F2A04EB04442FD943
:101A9400A2F1100C2CF00F0C03F11005AC44C3E9B7
:101AA4000044C3E9024410336345F8D112F00C0F2B
:101AB40002F00F0E18D01A462EF0030C9C44AEF11F
:101AC400040542F8044B6245FBD125F003040433BA
:101AD4000EF003022344002ACCD0C9B21A4403F8FE
:101AE400011B9342FBD130BD7246F4E70346C6E7BF
:101AF4009646E0E770B50F4B0F4DAB42A3EB0506DE
:101B040007D00024B61055F8043B01349847A64288
:101B1400F9D800F07FF8094D094B5E1BAB424FEA40
:101B2400A60606D0002455F8043B01349847A64283
:101B3400F9D870BD541C0008541C0008541C00083B
:101B44005C1C0008704700BF704700BF024B13B114
:101B5400024800F005B8704700000000711B00083F
:101B6400002301461A46184600F014B838B5074D4C
:101B7400074C2C1BA41005D0013C55F8043D984794
:101B8400002CF9D1BDE8384000F04AB8601C0008C8
:101B94005C1C00082DE9F8431B4D0646286898464E
:101BA4000F469146FFF7CEFF184B1C681CB32868FC
:101BB40065681F2D22DC4EB96B1C0235636044F846
:101BC4002570FFF7C1FF0020BDE8F883012304EB73
:101BD4008501C1F88890D4F88821AB401A43022EBD
:101BE400C4F88821C1F80881E6D1D4F88C211A43BD
:101BF400C4F88C21E0E7064C1C60D8E7FFF7A4FF8B
:101C04004FF0FF30E0E700BF0C000020E4010020AB
:101C1400E8010020F8B500BFF8BC08BC9E46704738
:0C1C2400F8B500BFF8BC08BC9E46704735
:101C3000000000000000000001020304060708097C
:101C40000102000002030405060708090A0B0C0D37
:041C50000E0F101053
:081C5400511B00084D020008BD
:041C5C002502000855
:101C600000127A000100000010000000E0010020D6
:04000005080009AD39
:00000001FF
